{
  "contractName": "SimpleStorage",
  "abi": [
    {
      "constant": false,
      "inputs": [
        {
          "name": "_number",
          "type": "uint256"
        }
      ],
      "name": "setNumber",
      "outputs": [],
      "payable": false,
      "stateMutability": "nonpayable",
      "type": "function"
    },
    {
      "constant": true,
      "inputs": [],
      "name": "getNumber",
      "outputs": [
        {
          "name": "",
          "type": "uint256"
        }
      ],
      "payable": false,
      "stateMutability": "view",
      "type": "function"
    },
    {
      "constant": false,
      "inputs": [
        {
          "name": "_string",
          "type": "string"
        }
      ],
      "name": "setString",
      "outputs": [],
      "payable": false,
      "stateMutability": "nonpayable",
      "type": "function"
    },
    {
      "constant": true,
      "inputs": [],
      "name": "getString",
      "outputs": [
        {
          "name": "",
          "type": "string"
        }
      ],
      "payable": false,
      "stateMutability": "view",
      "type": "function"
    }
  ],
  "bytecode": "0x608060405234801561001057600080fd5b506103bf806100206000396000f3fe60806040526004361061005c576000357c0100000000000000000000000000000000000000000000000000000000900480633fb5c1cb146100615780637fcaf6661461009c57806389ea642f14610164578063f2c9ecd8146101f4575b600080fd5b34801561006d57600080fd5b5061009a6004803603602081101561008457600080fd5b810190808035906020019092919050505061021f565b005b3480156100a857600080fd5b50610162600480360360208110156100bf57600080fd5b81019080803590602001906401000000008111156100dc57600080fd5b8201836020820111156100ee57600080fd5b8035906020019184600183028401116401000000008311171561011057600080fd5b91908080601f016020809104026020016040519081016040528093929190818152602001838380828437600081840152601f19601f820116905080830192505050505050509192919290505050610229565b005b34801561017057600080fd5b50610179610243565b6040518080602001828103825283818151815260200191508051906020019080838360005b838110156101b957808201518184015260208101905061019e565b50505050905090810190601f1680156101e65780820380516001836020036101000a031916815260200191505b509250505060405180910390f35b34801561020057600080fd5b506102096102e5565b6040518082815260200191505060405180910390f35b8060008190555050565b806001908051906020019061023f9291906102ee565b5050565b606060018054600181600116156101000203166002900480601f0160208091040260200160405190810160405280929190818152602001828054600181600116156101000203166002900480156102db5780601f106102b0576101008083540402835291602001916102db565b820191906000526020600020905b8154815290600101906020018083116102be57829003601f168201915b5050505050905090565b60008054905090565b828054600181600116156101000203166002900490600052602060002090601f016020900481019282601f1061032f57805160ff191683800117855561035d565b8280016001018555821561035d579182015b8281111561035c578251825591602001919060010190610341565b5b50905061036a919061036e565b5090565b61039091905b8082111561038c576000816000905550600101610374565b5090565b9056fea165627a7a72305820cafe8bd42de6835933d23180f996b83eb9002f887682ac27d4c367cd67151f500029",
  "source": "// SPDX-License-Identifier: MIT\npragma solidity >= 0.4.22 < 0.9.0;\n\ncontract SimpleStorage {\n    uint storedNumber;\n    string storedString;\n\n    function setNumber(uint _number) public {\n        storedNumber = _number;\n    }\n\n    function getNumber() public view returns (uint) {\n        return storedNumber;\n    }\n\n    function setString(string memory _string) public {\n        storedString = _string;\n    }\n\n    function getString() public view returns (string memory) {\n        return storedString;\n    }\n}",
  "sourcePath": "/home/vitordeveth/projects/solidity-study/contracts/SimpleStorage.sol",
  "compiler": {
    "name": "solc",
    "version": "0.5.1+commit.c8a2cb62.Emscripten.clang"
  },
  "schemaVersion": "3.4.14",
  "updatedAt": "2023-07-27T12:18:18.537Z",
  "devdoc": {
    "methods": {}
  },
  "userdoc": {
    "methods": {}
  }
}