{
  "contractName": "SimpleStorage",
  "abi": [
    {
      "inputs": [
        {
          "internalType": "uint256",
          "name": "_number",
          "type": "uint256"
        }
      ],
      "name": "setNumber",
      "outputs": [],
      "stateMutability": "nonpayable",
      "type": "function"
    },
    {
      "inputs": [],
      "name": "getNumber",
      "outputs": [
        {
          "internalType": "uint256",
          "name": "",
          "type": "uint256"
        }
      ],
      "stateMutability": "view",
      "type": "function"
    },
    {
      "inputs": [
        {
          "internalType": "string",
          "name": "_string",
          "type": "string"
        }
      ],
      "name": "setString",
      "outputs": [],
      "stateMutability": "nonpayable",
      "type": "function"
    },
    {
      "inputs": [],
      "name": "getString",
      "outputs": [
        {
          "internalType": "string",
          "name": "",
          "type": "string"
        }
      ],
      "stateMutability": "view",
      "type": "function"
    }
  ],
  "bytecode": "0x608060405234801561000f575f80fd5b506107298061001d5f395ff3fe608060405234801561000f575f80fd5b506004361061004a575f3560e01c80633fb5c1cb1461004e5780637fcaf6661461006a57806389ea642f14610086578063f2c9ecd8146100a4575b5f80fd5b610068600480360381019061006391906101ba565b6100c2565b005b610084600480360381019061007f9190610321565b6100cb565b005b61008e6100de565b60405161009b91906103e2565b60405180910390f35b6100ac61016e565b6040516100b99190610411565b60405180910390f35b805f8190555050565b80600190816100da9190610624565b5050565b6060600180546100ed90610457565b80601f016020809104026020016040519081016040528092919081815260200182805461011990610457565b80156101645780601f1061013b57610100808354040283529160200191610164565b820191905f5260205f20905b81548152906001019060200180831161014757829003601f168201915b5050505050905090565b5f8054905090565b5f604051905090565b5f80fd5b5f80fd5b5f819050919050565b61019981610187565b81146101a3575f80fd5b50565b5f813590506101b481610190565b92915050565b5f602082840312156101cf576101ce61017f565b5b5f6101dc848285016101a6565b91505092915050565b5f80fd5b5f80fd5b5f601f19601f8301169050919050565b7f4e487b71000000000000000000000000000000000000000000000000000000005f52604160045260245ffd5b610233826101ed565b810181811067ffffffffffffffff82111715610252576102516101fd565b5b80604052505050565b5f610264610176565b9050610270828261022a565b919050565b5f67ffffffffffffffff82111561028f5761028e6101fd565b5b610298826101ed565b9050602081019050919050565b828183375f83830152505050565b5f6102c56102c084610275565b61025b565b9050828152602081018484840111156102e1576102e06101e9565b5b6102ec8482856102a5565b509392505050565b5f82601f830112610308576103076101e5565b5b81356103188482602086016102b3565b91505092915050565b5f602082840312156103365761033561017f565b5b5f82013567ffffffffffffffff81111561035357610352610183565b5b61035f848285016102f4565b91505092915050565b5f81519050919050565b5f82825260208201905092915050565b5f5b8381101561039f578082015181840152602081019050610384565b5f8484015250505050565b5f6103b482610368565b6103be8185610372565b93506103ce818560208601610382565b6103d7816101ed565b840191505092915050565b5f6020820190508181035f8301526103fa81846103aa565b905092915050565b61040b81610187565b82525050565b5f6020820190506104245f830184610402565b92915050565b7f4e487b71000000000000000000000000000000000000000000000000000000005f52602260045260245ffd5b5f600282049050600182168061046e57607f821691505b6020821081036104815761048061042a565b5b50919050565b5f819050815f5260205f209050919050565b5f6020601f8301049050919050565b5f82821b905092915050565b5f600883026104e37fffffffffffffffffffffffffffffffffffffffffffffffffffffffffffffffff826104a8565b6104ed86836104a8565b95508019841693508086168417925050509392505050565b5f819050919050565b5f61052861052361051e84610187565b610505565b610187565b9050919050565b5f819050919050565b6105418361050e565b61055561054d8261052f565b8484546104b4565b825550505050565b5f90565b61056961055d565b610574818484610538565b505050565b5b818110156105975761058c5f82610561565b60018101905061057a565b5050565b601f8211156105dc576105ad81610487565b6105b684610499565b810160208510156105c5578190505b6105d96105d185610499565b830182610579565b50505b505050565b5f82821c905092915050565b5f6105fc5f19846008026105e1565b1980831691505092915050565b5f61061483836105ed565b9150826002028217905092915050565b61062d82610368565b67ffffffffffffffff811115610646576106456101fd565b5b6106508254610457565b61065b82828561059b565b5f60209050601f83116001811461068c575f841561067a578287015190505b6106848582610609565b8655506106eb565b601f19841661069a86610487565b5f5b828110156106c15784890151825560018201915060208501945060208101905061069c565b868310156106de57848901516106da601f8916826105ed565b8355505b6001600288020188555050505b50505050505056fea2646970667358221220e2f7436db105591a997297a59cee2a74224a4b787e9b59848dc88acddca3def464736f6c63430008140033",
  "immutableReferences": {},
  "source": "// SPDX-License-Identifier: MIT\npragma solidity >= 0.4.22 < 0.9.0;\n\ncontract SimpleStorage {\n    uint storedNumber;\n    string storedString;\n\n    function setNumber(uint _number) public {\n        storedNumber = _number;\n    }\n\n    function getNumber() public view returns (uint) {\n        return storedNumber;\n    }\n\n    function setString(string memory _string) public {\n        storedString = _string;\n    }\n\n    function getString() public view returns (string memory) {\n        return storedString;\n    }\n}",
  "sourcePath": "/home/vitordeveth/projects/solidity-study/contracts/SimpleStorage.sol",
  "compiler": {
    "name": "solc",
    "version": "0.8.20+commit.a1b79de6.Emscripten.clang"
  },
  "schemaVersion": "3.4.14",
  "updatedAt": "2023-07-27T12:08:38.940Z",
  "devdoc": {
    "kind": "dev",
    "methods": {},
    "version": 1
  },
  "userdoc": {
    "kind": "user",
    "methods": {},
    "version": 1
  }
}